:100000000C94B8010C94E9010C94E9010C94E901F9
:100010000C94E9010C94E9010C94E9010C94E901B8
:100020000C94E9010C94E9010C94E9010C94E901A8
:100030000C94E9010C94E9010C94E9010C94E90198
:100040000C94E9010C94FA070C94E9010C94E90171
:100050000C94E9010C94E9010C94E9010C94260735
:100060000C94E9010C94F0060C94C6060C94E9017A
:100070000C94E9010C94E9010C94E9010C94E90158
:100080000C94CC070C94E9010C94E9010C94E9015F
:100090000C94E9010C94E9010C94E9010C94E90138
:1000A0000C94E9010C94E9010C949E070C94E9016D
:1000B0000C94E9010C94E9010C94E9010C9470078B
:1000C0000C94E9010C94E9010C94E9010C94E90108
:1000D0000C94E9010C94E9010C94E9010C94E901F8
:1000E0000C94E9010C94DE030C94F5030C94DC02EF
:1000F0000C94E5030C9415040C9411040C947E02EA
:100100000C9428080C94F9030C94DA030C940B0457
:100110000C94D6030C9473040C94FD030C94D0033C
:100120000C94BA020C94AB020C9410040C94B3041B
:100130000C94E2030C9403040C9414030C944204F6
:100140000C9407040C9461030C94EB030C94EF03E0
:100150000C94CE0200407A10F35A00A0724E180997
:100160000010A5D4E80000E87648170000E40B541E
:10017000020000CA9A3B000000E1F50500008096ED
:100180009800000040420F000000A086010000001F
:10019000102700000000E8030000000064000000D9
:1001A00000000A00000000000100000000002C76A2
:1001B000D888DC674F0823DFC1DFAE59E1B1B796BD
:1001C000E5E3E453C63AE651997696E8E6C284261A
:1001D000EB898C9B62ED407C6FFCEFBC9C9F40F2F6
:1001E000BAA56FA5F490055A2AF75C936B6CF96772
:1001F0006DC11BFCE0E40D47FEF520E6B500D0ED37
:10020000902E0300943577050080841E080000209E
:100210004E0A000000C80C333333330F986E12833C
:100220001141EF8D2114893BE65516CFFEE6DB1810
:10023000D1844B381BF77C1D901DA4BBE4242032D5
:1002400084725E228100C9F124ECA1E53D27000003
:100250002100240027002A002D0030003300010176
:100260000000040107010A01000022002500280007
:100270002B002E00310034000201000005010801AE
:100280000B01000020002300260029002C002F0075
:100290003200000100000301060109010505050502
:1002A000070508080808020202020A0A08080404EE
:1002B000040401010101010101010303030303031C
:1002C0000303040707070C0C0C0C0C0C0C0C0202AB
:1002D000020206060606060606060B0B0B0B0B0BA8
:1002E0000B0B010210202008081020401020408035
:1002F00002010201080402010102040810204080EA
:100300008040201008040201800402018040201077
:1003100008040201080402010102040810204080C0
:10032000010204081020408000000A0B02090C0D95
:100330000E08070304010000000000000000000098
:1003400000000000000000000000000000000000AD
:10035000000000001211100000000000000000006A
:10036000000000000000000000000000000028085D
:1003700011241FBECFEFD1E2DEBFCDBF00E00CBF26
:1003800012E0A0E0B2E0E2E3F6E200E00BBF02C060
:1003900007900D92A437B107D9F724E0A4E7B2E0A3
:1003A00001C01D92A532B207E1F711E0C8EBD1E020
:1003B00000E006C021970109802FFE010E94F9107C
:1003C000C73BD10780E00807A9F70E94D0080C942A
:1003D00017130C94000096E0899FD0011124A155B9
:1003E000BC4F90967C936E935F9791E091969C930F
:1003F0009197E0911C04F0911D0490911B049923A6
:1004000039F0309751F0811108C08091CB031994D5
:10041000309719F05C968C91FACF0895CF92DF92C5
:10042000EF92FF920F931F9396E0899FF0011124A2
:10043000E155FC4F11A2278D30A12130310551F13A
:1004400078F02230310509F451C02330310509F428
:1004500052C01F910F91FF90EF90DF90CF900895C1
:100460006623B9F361E070E00E94EB012FB7F894C6
:1004700080917D0290917E02A0917F02B0918002D6
:100480002FBF8093070490930804A0930904B093AE
:100490000A04DFCF9FB7F894C0907D02D0907E020F
:1004A000E0907F02F09080029FBF009107041091BE
:1004B00008042091090430910A04C01AD10AE20A02
:1004C000F30A0091190410911A0430E020E00C1591
:1004D0001D052E053F0550F462E070E01F910F915D
:1004E000FF90EF90DF90CF900C94EB016111B1CFB2
:1004F00063E070E0F3CF70E060E0F0CFAF92BF92C6
:10050000CF92DF92EF92FF920F931F93CF93DF93DF
:100510006C017B018B01040F151FEB015E01AE180E
:10052000BF08C017D10759F06991D601ED91FC9130
:100530000190F081E02DC6011995892B79F7C5014D
:10054000DF91CF911F910F91FF90EF90DF90CF90AF
:10055000BF90AF900895FC01538D448D252F30E05E
:10056000842F90E0821B930B541710F0CF960895C0
:1005700001970895FC01918D828D981761F0A28DED
:10058000AE0FBF2FB11D5D968C91928D9F5F9F73B3
:10059000928F90E008958FEF9FEF0895FC01918D69
:1005A000828D981731F0828DE80FF11D858D90E0D6
:1005B00008958FEF9FEF0895FC01918D228D892F73
:1005C00090E0805C9F4F821B91098F73992708955B
:1005D00081E892E00E94DC0221E0892B09F420E00E
:1005E000822F0895FC01A48DA80FB92FB11DA35A25
:1005F000BF4F2C91848D90E001968F739927848F43
:10060000A689B7892C93A089B1898C918370806465
:100610008C93938D848D981306C00288F389E02D06
:1006200080818F7D80830895EF92FF920F931F93B7
:10063000CF93DF93EC0181E0888F9B8D8C8D981395
:100640001AC0E889F989808185FF15C09FB7F894A1
:10065000EE89FF896083E889F989808183708064ED
:1006600080839FBF81E090E0DF91CF911F910F9138
:10067000FF90EF900895F62E0B8D10E00F5F1F4F47
:100680000F731127E02E8C8D8E110CC00FB607FC56
:10069000FACFE889F989808185FFF5CFCE010E94E4
:1006A000F202F1CFEB8DEC0FFD2FF11DE35AFF4F5E
:1006B000F0829FB7F8940B8FEA89FB898081806272
:1006C000CFCFCF93DF93EC01888D8823B9F0AA892F
:1006D000BB89E889F9898C9185FD03C0808186FDFD
:1006E0000DC00FB607FCF7CF8C9185FFF2CF80814C
:1006F00085FFEDCFCE010E94F202E9CFDF91CF91CD
:10070000089580E090E0892B29F00E94E802811191
:100710000E94000080E090E0892B49F080E090E0AA
:10072000892B29F00E94000081110E94000080E0C6
:1007300090E0892B49F080E090E0892B29F00E941D
:10074000000081110E94000080E090E0892B49F0B8
:1007500080E090E0892B29F00E94000081110C9428
:10076000000008958150823108F05AC0E82FF0E06F
:100770008827E254FC4F8F4F0C94F910DE03E203FC
:10078000D003D603DA031004E503EB03EF03F5030C
:10079000F903FD030304070410040B0411041504FA
:1007A000809180008F7780938000089580918000F1
:1007B0008F7DF9CF80918000877FF5CF84B58F77CB
:1007C00084BD089584B58F7DFBCF8091B0008F7775
:1007D0008093B00008958091B0008F7DF9CF809113
:1007E00090008F77809390000895809190008F7D86
:1007F000F9CF80919000877FF5CF8091A0008F770F
:100800008093A00008958091A0008F7DF9CF809102
:10081000A000877FF5CF809120018F778093200102
:100820000895809120018F7DF9CF80912001877FED
:10083000F5CFCF93DF93282F30E0F901E85DFC4F2F
:100840008491F901EE51FD4FD491F901E456FD4F29
:10085000C491CC23A1F081110E94B203EC2FF0E0EF
:10086000EE0FFF1FEE57FD4FA591B491EC91ED23D4
:1008700081E090E009F480E0DF91CF91089580E07D
:1008800090E0FACF862F0C9419041F93CF93DF9337
:10089000282F30E0F901E85DFC4F8491F901EE5119
:1008A000FD4FD491F901E456FD4FC491CC23A9F03A
:1008B000162F81110E94B203EC2FF0E0EE0FFF1F04
:1008C000E859FD4FA591B4918FB7F894EC911111AF
:1008D00008C0D095DE23DC938FBFDF91CF911F91AD
:1008E0000895DE2BF8CF862F642F0C944504CF9308
:1008F000DF9390E0FC01EE51FD4F249184569D4F13
:10090000FC0184918823C9F090E0880F991FFC01B5
:10091000E25BFD4FA591B491FC01E859FD4FC591F3
:10092000D49161110DC09FB7F8948C9120958223CA
:100930008C938881282328839FBFDF91CF910895CE
:10094000623051F49FB7F8943C91822F80958323B5
:100950008C93E8812E2BEFCF8FB7F894EC912E2B50
:100960002C938FBFEACF862F642F0C9477048633A5
:1009700008F0865320917B00982F9870277F922B48
:1009800090937B008770806480937C0080917A00D4
:10099000806480937A0080917A0086FDFCCF8091FC
:1009A0007800909179000895AF92BF92CF92DF9234
:1009B000EF92FF920F931F93CF93DF936B017A0116
:1009C000EC01CC58DD4F28813CE0389F8001399FF5
:1009D000100D1124A090AE03B12C27FF1FC0FB0106
:1009E0001182108288818F5F888388819801280F07
:1009F000311D87FD3A95F6012A153B051CF48881C7
:100A00008C30C4F180819181049680349C4908F433
:100A100073C0F60180819181049670C0888198012D
:100A2000280F311D87FD3A952A153B05DCF6888194
:100A3000A801480F511D87FD5A95FA01EE0FFF1FBF
:100A4000E40FF51FE25EFC4F808186FFCBCF8881EB
:100A5000F801E80FF11D87FDFA95CF01EE0FFF1F9A
:100A6000E80FF91FE25EFC4F808160E08F730E9407
:100A70004504B8CF808191812881A801420F511D82
:100A800027FD5A959A01FA01EE0FFF1FE20FF31F9F
:100A9000E25EFC4F21813281820F931FF701918327
:100AA000808388819801280F311D87FD3A95F901CF
:100AB000EE0FFF1FE20FF31FE25EFC4F808186FF07
:100AC00022C08881080F111D87FD1A95F801EE0FCD
:100AD000FF1FE00FF11FE25EFC4F808161E08F732A
:100AE000DF91CF911F910F91FF90EF90DF90CF900A
:100AF000BF90AF900C94450480E49CE9F70191838A
:100B000080838FEF8883DF91CF911F910F91FF90AA
:100B1000EF90DF90CF90BF90AF90089542E050E00B
:100B20006AE272E081E892E00C947E02CF93DF9358
:100B3000FC01448155816081718181E892E00E94CD
:100B40007E02EC010E948E058C0F9D1FDF91CF91DC
:100B50000895CF93DF93FC0101900020E9F73197CE
:100B6000AF01481B590BBC0181E892E00E947E0254
:100B7000EC010E948E058C0F9D1FDF91CF9108958F
:100B80000F931F93CF93DF93EC0188819981009796
:100B900059F02A813B812617370730F081E0DF9139
:100BA000CF911F910F9108958B016F5F7F4F0E942E
:100BB0002612009759F0998388831B830A832C811E
:100BC0003D81232B59F7FC011082E8CF80E0E7CF6D
:100BD000CF93DF93EC0188819981009711F00E94F7
:100BE0009D11198218821D821C821B821A82DF913C
:100BF000CF9108950F931F93CF93DF93EC010C8156
:100C00001D810F5F1F4FB8010E94C005882391F01E
:100C1000288139818C819D816DE272E0820F931F62
:100C20000E9410131D830C83CE01DF91CF911F9181
:100C30000F910895CE010E94E805F6CFCF93DF9380
:100C4000EC01198218821B821A821D821C8267E0C5
:100C500070E00E94C005811105C0CE01DF91CF91E7
:100C60000C94E80587E090E09D838C836FE272E04E
:100C700088819981DF91CF910C941013CF92DF92EC
:100C8000EF92FF920F931F93CF93DF93CDB7DEB711
:100C9000A1970FB6F894DEBF0FBECDBF7C01CB018C
:100CA000BA01F70111821082138212821582148216
:100CB0008E010F5F1F4F22E044E00E94920C6C01F6
:100CC000009771F0FC0101900020E9F731978F0146
:100CD000081B190BB801C7010E94C005811112C081
:100CE000C7010E94E805A1960FB6F894DEBF0FBEBB
:100CF000CDBFDF91CF911F910F91FF90EF90DF90CB
:100D0000CF900895F70115830483B6018081918106
:100D10000E941013E8CFEF92FF920F931F93CF938F
:100D2000DF93EC01FB01E080F180E114F10411F1AB
:100D30000481158101151105A9F08C819D81080F91
:100D4000191FB801CE010E94C005882399F028819F
:100D500039818C819D81B701820F931F0E941013EE
:100D60001D830C83CE01DF91CF911F910F91FF90D6
:100D7000EF900895CE010E94E805F4CFFC01808138
:100D80009181009711F00C949D1108951F920F927C
:100D90000FB60F9211240BB60F922F933F934F93E0
:100DA0005F936F937F938F939F93AF93BF93EF93D3
:100DB000FF9381E892E00E94F202FF91EF91BF91D0
:100DC000AF919F918F917F916F915F914F913F91E3
:100DD0002F910F900BBE0F900FBE0F901F90189584
:100DE0001F920F920FB60F9211240BB60F922F93F2
:100DF0008F939F93EF93FF93E0919102F091920272
:100E00008081E0919702F091980282FD1DC090814F
:100E100080919A028F5F8F7320919B02821741F01D
:100E2000E0919A02F0E0EF57FD4F958F80939A0280
:100E3000FF91EF919F918F912F910F900BBE0F908B
:100E40000FBE0F901F9018958081F2CF1F920F92C6
:100E50000FB60F9211242F933F938F939F93AF93CD
:100E6000BF9380917D0290917E02A0917F02B0910C
:100E7000800230917C0223E0230F2D3758F5019634
:100E8000A11DB11D20937C0280937D0290937E0270
:100E9000A0937F02B09380028091780290917902B2
:100EA000A0917A02B0917B020196A11DB11D8093A1
:100EB000780290937902A0937A02B0937B02BF915B
:100EC000AF919F918F913F912F910F900FBE0F90F7
:100ED0001F90189526E8230F0296A11DB11DD2CFB1
:100EE0001F920F920FB60F9211240BB60F922F93F1
:100EF0003F934F935F936F937F938F939F93AF93A2
:100F0000BF93EF93FF9348E251E064E271E090E019
:100F100080E00E94D404FF91EF91BF91AF919F9127
:100F20008F917F916F915F914F913F912F910F9092
:100F30000BBE0F900FBE0F901F9018951F920F922F
:100F40000FB60F9211240BB60F922F933F934F932E
:100F50005F936F937F938F939F93AF93BF93EF9321
:100F6000FF9348EA50E064EA70E083E090E00E947A
:100F7000D404FF91EF91BF91AF919F918F917F9199
:100F80006F915F914F913F912F910F900BBE0F90FA
:100F90000FBE0F901F9018951F920F920FB60F92D1
:100FA00011240BB60F922F933F934F935F936F9340
:100FB0007F938F939F93AF93BF93EF93FF9348E9F2
:100FC00050E064E970E082E090E00E94D404FF9178
:100FD000EF91BF91AF919F918F917F916F915F91B1
:100FE0004F913F912F910F900BBE0F900FBE0F901E
:100FF0001F9018951F920F920FB60F9211240BB6E7
:101000000F922F933F934F935F936F937F938F93A1
:101010009F93AF93BF93EF93FF9348E850E064E84A
:1010200070E081E090E00E94D404FF91EF91BF91C5
:10103000AF919F918F917F916F915F914F913F9170
:101040002F910F900BBE0F900FBE0F901F90189511
:10105000109284021092830288EE93E0A0E0B0E048
:101060008093850290938602A0938702B0938802B2
:1010700082E192E0909382028093810285EC90E07D
:1010800090938E0280938D0284EC90E09093900276
:1010900080938F0280EC90E0909392028093910273
:1010A00081EC90E0909394028093930282EC90E024
:1010B000909396028093950286EC90E0909398022C
:1010C0008093970210929A0210929B0210929C02B7
:1010D00010929D028091AE03803308F05DC091E0D4
:1010E000980F9093AE0380931E0490E0FC01EE0FE6
:1010F000FF1FE80FF91FE25EFC4F88EB9BE0928335
:1011000081831092B1031092B5031092B403109230
:10111000B60384E292E09093B0038093AF03EBECCC
:10112000F3E01082148213821582369684E0E73051
:10113000F807B9F782E092E09093120480931104CB
:1011400080E092E0909314048093130482E08093F3
:1011500015048093160484E092E090931004809329
:101160000F048AE090E0909318048093170484EFB2
:1011700091E090931A048093190410921D04109228
:101180001C0410920B0410920C0410920D04109287
:101190000E0410921B0408958FEF80931E04B1CFAC
:1011A000CF93DF93CDB7DEB76C970FB6F894DEBF61
:1011B0000FBECDBF789484B5826084BD84B5816054
:1011C00084BD85B5826085BD85B5816085BD809112
:1011D0006E00816080936E0010928100809181008A
:1011E0008260809381008091810081608093810082
:1011F000809180008160809380008091B100846044
:101200008093B1008091B00081608093B0008091A4
:101210009100826080939100809191008160809321
:101220009100809190008160809390008091A10056
:1012300082608093A1008091A10081608093A100D1
:101240008091A00081608093A00080912101826044
:1012500080932101809121018160809321018091FF
:10126000200181608093200180917A0084608093C6
:101270007A0080917A00826080937A0080917A006F
:10128000816080937A0080917A00806880937A00F0
:101290001092C100E0919102F091920282E080836D
:1012A000E0918D02F0918E021082E0918F02F09118
:1012B00090028FEC808310929902E0919502F09158
:1012C000960286E08083E0919302F09194028081FF
:1012D00080618083E0919302F09194028081886024
:1012E0008083E0919302F0919402808180688083F2
:1012F000E0919302F091940280818F7D808360E081
:1013000085E40E94770460E084E40E94770460E052
:1013100083E40E94770460E082E40E947704809175
:101320001E04803308F052C061E082E00E9477041E
:1013300080911E04282F30E0F901EE0FFF1FE20F0D
:10134000F31FE25EFC4F9081907C9260908310923C
:101350001F04109220042CE0622F0E94ED10829F47
:10136000B001112430E020E0AB01420F531FFA011D
:10137000EE0FFF1FE40FF51FE25EFC4F908196FD1C
:1013800017C02F5F3F4F2C30310571F7813009F0C6
:1013900047C11092800082E0809381001092850006
:1013A00010928400B19A80916F00826080936F00E8
:1013B000E0911E048E2F90E0FC01EE0FFF1FE80F5E
:1013C000F91FE25EFC4F80818064808378ED872E78
:1013D00073E0972EA12CB12CE8E52E2EE2E03E2EF4
:1013E00085E40E94B7043C0184E40E94B7046C01C8
:1013F00083E40E94B7047C0182E40E94B7048C015C
:101400009301770C440B550B2652310941095109C0
:10141000A4E6B0E00E943F10A50194010E942010B4
:10142000CA01B9010E94030F6D877E878F87988B51
:101430009601DD0C440B550B265231094109510927
:10144000A4E6B0E00E943F10A50194010E94201084
:10145000CA01B9010E94030F698B7A8B8B8B9C8B1D
:101460009701FF0C440B550B2652310941095109D4
:10147000A4E6B0E00E943F10A50194010E94201054
:10148000CA01B9010E94030F6D8B7E8B8F8B988FE1
:10149000012E000C220B330BA901980126523109B1
:1014A00041095109A4E6B0E00E943F10A501940152
:1014B0000E942010CA01B9010E94030F698F7A8F20
:1014C0008B8F9C8F29893A894B895C896D857E85B4
:1014D0008F8598890E947C102D893E894F89588D6F
:1014E0000E947C10298D3A8D4B8D5C8D0E947C1062
:1014F00020E030E040E85EE30E94620F20E030E050
:1015000040E752E40E94E81087FD53C0F0901E04AB
:101510005FE25F1508F44DC0809120046101C81A94
:10152000D10887FDD394CC0CDD1CCC0CDD1C809144
:101530001F0408E810E0081B110987FD1395000F30
:10154000111F000F111F2801012E000C66087708DB
:1015500096010D2C000C440B550B24193509460936
:101560005709AAE5B0E00E943F1024EB30E040E0CC
:1015700050E00E942010420E531E641E751E40163D
:1015800051062CF086014C145D040CF482010250CB
:101590001109000F111F2FB7F8948F2D90E0FC0157
:1015A000EE0FFF1FE80FF91FE25EFC4F128301836D
:1015B0002FBF81E080931B048FB7F89440917D0288
:1015C00050917E0260917F02709180028FBF809166
:1015D0000B0490910C04A0910D04B0910E04481BD3
:1015E000590B6A0B7B0B8091170490911804B0E0A3
:1015F000A0E084179507A607B70708F046C110E0DA
:10160000809115041817C0F5E0911104F0911204AF
:10161000E10FF11D62E080810E9477041F5FF0CF2F
:10162000823061F4109290008093910010929500A6
:101630001092940088BB80937100BACE833069F415
:101640001092A00082E08093A1001092A500109259
:10165000A40089BB80937200ABCE8111A9CE1092F9
:10166000200182E080932101109225011092240133
:101670008ABB809373009CCED12C80911604D8161F
:1016800008F063C0ED2CF12CE0911304F0911404E8
:10169000EE0DFF1D61E080810E947704E09113044C
:1016A000F0911404EE0DFF1D60E080810E9445045E
:1016B00081E090E0A0E0B0E00D2C04C0880F991FFD
:1016C000AA1FBB1F0A94D2F72C013C0160947094AE
:1016D000C12C80911504C81608F50C2D10E0E0917E
:1016E0001104F0911204E00FF11F80810E9419048F
:1016F0000C5F1F4F000F111FF801E155FC4F892BA4
:1017000041F4808191818429952991838083C394B8
:10171000E0CF8081918186219721F7CFE09113045A
:10172000F0911404EE0DFF1D61E080810E944504DC
:101730008091130490911404E80EF91E60E0F70103
:1017400080810E947704D39498CF9FEAC92E93E0BA
:10175000D92E8601F801878D90A1892B31F4148E42
:101760008FEF9FEF968F858F11A20A5F1F4F93E037
:101770000B3E190779F7F12C80911504F81608F043
:1017800053C0E12C6F2C712C660C771CF301E954CB
:10179000FC4F3F0120911604E21608F043C0F3010C
:1017A000608171810E2C02C0769567950A94E2F7EC
:1017B000F29E900111242E0D311DEFEAF3E080E03E
:1017C000458D568D2417350709F4AAC08F5F3696CC
:1017D0008A30B1F760FF24C0EFEAF3E090E080E0E8
:1017E000448D411118C0E0910F04F0911004E20FF4
:1017F000F31F408156E0589FF001599FF00D1124CE
:10180000E155FC4F448F368F258F10A2178E61E073
:101810000E940E0205C0019636968A30910501F7A6
:10182000E394B8CFF394A8CF80E0F60191A1911191
:10183000892FF6E0CF0ED11C0C151D05B1F79FB70F
:10184000F89440917D0250917E0260917F027091E8
:1018500080029FBF40930B0450930C0460930D04CF
:1018600070930E04882389F08091D003882369F057
:101870008091CE039091CF03019739F48091CB03EF
:10188000811106C00E948103ABCD10921B04FACFD8
:10189000813321F587E392E00E94A9054D855E859D
:1018A0006F857889CE0101960E943E06CE0107968B
:1018B0000E941E06BE016F5F7F4FCE0107960E94F9
:1018C0008B060E94FA050E949605CE0107960E949B
:1018D000BE06CE0101960E94BE06D4CF823349F4E3
:1018E00086E492E00E94A90549895A896B897C891E
:1018F000D9CF833349F485E592E00E94A9054D894B
:101900005E896F89788DCECF843309F0BBCF84E6B2
:1019100092E00E94A905498D5A8D6B8D7C8DC2CFB6
:10192000617076CFEF920F931F93CF93DF93E8010F
:1019300034E047FD34E1042E000C550B57FF03C083
:10194000519541955109E32E022F242FAE010E949B
:10195000B00CCE01DF91CF911F910F91EF900895C0
:101960008F929F92AF92BF92CF92DF92EF92FF92AF
:101970000F931F93CF93DF9300D000D000D0CDB74B
:10198000DEB76A01F22EB02E102FFBE3AF2EA016A9
:1019900008F41BE31F5F012F27E0AE014F5F5F4F8D
:1019A0000E94290EBC018981982F9970913009F409
:1019B0004EC09BE2E1FC04C09E2D9170E0FC49C04A
:1019C0005E2D5071E82FE87083FF55C084E09111BF
:1019D00001C083E0EF2DE81B8F1508F0E0E0D60191
:1019E0008E2F20E25523C9F1992329F0D6019C932B
:1019F000C60101966C0196012D5F3F4FE2FE33C098
:101A00008EE4D6018C9391E411969C9311971296D3
:101A10008C93D9018E2F90E281112AC0E20FF32F0F
:101A2000F11D10828EEF9FEF29960FB6F894DEBF5E
:101A30000FBECDBFDF91CF911F910F91FF90EF901F
:101A4000DF90CF90BF90AF909F908F9008959DE2D0
:101A5000B7CF90E2B5CF2D9381508111FCCFCE0E40
:101A6000D11CE0E0C1CF8EE6D6018C9391E6CCCFBD
:101A70009D938150D1CF482F447082FF3DC084E0B8
:101A8000911101C083E08F1510F4EF2DE81BD601F2
:101A90008E2F20E2552309F1992329F0D6019C933A
:101AA000C60101966C0196012D5F3F4FE2FE1BC0FF
:101AB00089E4D6018C938EE411968C93119786E479
:101AC00012968C93D9018E2F90E2882309F4A6CF29
:101AD0009D938150FACF2D9381508111FCCFCE0E72
:101AE000D11CE0E0D9CF89E6D6018C938EE6119621
:101AF0008C93119786E6E4CF9B0177FF02C030E01C
:101B000020E0A1E0B0E0911102C0B0E0A0E0F90156
:101B10003196AE0FBF1F8B2C912CBB2009F461C0F6
:101B20005401EFEFAE1ABE0AAA0DBB1DFA161B0632
:101B300019F014F04F2D4A1B511188C0E3FC59C015
:101B40007601A42FB0E2A1114FC0C40ED11C99237D
:101B500009F45BC040E0D6011196F60190836D0157
:101B6000552309F448C0012F060F9A81582F507150
:101B700084FF03C0913309F4015010160CF047C0E4
:101B8000093008F008E0EEE2FE2E5B01A01AB10871
:101B900085019194819491082F3F320729F4D60151
:101BA000FC92F60131966F016217730794F10217E8
:101BB00013077CF5DB01A21BB30BAA24A394B12C61
:101BC000AC0EBD1EAA0DBB1D11968C912150310982
:101BD000D601119628153905F4F0F60180836D01C0
:101BE000DBCFB12CA12CA0CFF701B1937F01A15085
:101BF000AACF9111B0CFD601942F50E302C05D93CC
:101C000091509111FCCFC40ED11C40E0ACCF01E04B
:101C1000BACF80E3DBCF6217730731F4963388F4D1
:101C2000953311F4552369F0F6018083FD01842F6B
:101C300090E2811108C0A40FB11D1C9290E080E0D9
:101C4000F3CE81E3F1CF91938150F3CF911183CF04
:101C50008ACF283008F027E03327DA01990F311DA9
:101C600087FD916000966105710539F432602E5F41
:101C70003D9330E32A95E1F708959F3F30F0803897
:101C80007105610509F03C5F3C5F3D93913008F0C0
:101C90008068911DDF93CF931F930F93FF92EF9274
:101CA000192F987F9695E92F96959695E90FFF271E
:101CB000E255FE4F99273327EE24FF24A701E701C1
:101CC00005900894079428F4360FE71EF81E491F64
:101CD000511D660F771F881F991F0694A1F7059065
:101CE000079428F4E70EF81E491F561FC11D770FF1
:101CF000881F991F661F0694A1F70590079428F482
:101D0000F80E491F561FC71FD11D880F991F661F48
:101D1000771F0694A1F70590079420F4490F561FEA
:101D2000C71FD81F990F661F771F881F0694A9F732
:101D300084911095177041F0D695C79557954795A2
:101D4000F794E7941A95C1F7E4E5F1E068941590EB
:101D5000159135916591959105907FE27395E11804
:101D6000F10A430B560BC90BD009C0F7E10CF11E69
:101D7000431F561FC91FD01D7EF4703311F48A957E
:101D8000E6CFE894015030F0080F0AF4002702175C
:101D900008F4202F2395022F7A3328F079E37D93DE
:101DA0002A95E9F710C07D932A9589F606949795B0
:101DB0006795379517951794E118F10A430B560B61
:101DC000C90BD00998F023957E9173957A3308F06A
:101DD00070E37C932013B8F77E9170617D9330F0AF
:101DE000839571E37D9370E32A95E1F71124EF90D9
:101DF000FF900F911F91CF91DF91992787FD9095CB
:101E00000895E89409C097FB3EF4909580957095ED
:101E100061957F4F8F4F9F4F9923A9F0F92F96E936
:101E2000BB279395F695879577956795B795F111AB
:101E3000F8CFFAF4BB0F11F460FF1BC06F5F7F4F48
:101E40008F4F9F4F16C0882311F096E911C077235A
:101E500021F09EE8872F762F05C0662371F096E863
:101E6000862F70E060E02AF09A95660F771F881F32
:101E7000DAF7880F9695879597F90895990F0008D6
:101E8000550FAA0BE0E8FEEF16161706E807F9074C
:101E9000C0F012161306E407F50798F0621B730BE7
:101EA000840B950B39F40A2661F0232B242B252B68
:101EB00021F408950A2609F4A140A6958FEF811D0B
:101EC000811D08950E94750F0C94E60F0E94D80F93
:101ED00038F00E94DF0F20F0952311F00C94CF0F03
:101EE0000C94D50F11240C941A100E94F70F70F364
:101EF000959FC1F3950F50E0551F629FF001729FAF
:101F0000BB27F00DB11D639FAA27F00DB11DAA1FBD
:101F1000649F6627B00DA11D661F829F2227B00D0A
:101F2000A11D621F739FB00DA11D621F839FA00D95
:101F3000611D221F749F3327A00D611D231F849FE5
:101F4000600D211D822F762F6A2F11249F5750403C
:101F50009AF0F1F088234AF0EE0FFF1FBB1F661FB7
:101F6000771F881F91505040A9F79E3F510580F080
:101F70000C94CF0F0C941A105F3FE4F3983ED4F307
:101F8000869577956795B795F795E7959F5FC1F724
:101F9000FE2B880F911D9695879597F9089597F9CF
:101FA0009F6780E870E060E008959FEF80EC0895FF
:101FB00000240A9416161706180609060895002428
:101FC0000A9412161306140605060895092E0394A2
:101FD000000C11F4882352F0BB0F40F4BF2B11F416
:101FE00060FF04C06F5F7F4F8F4F9F4F089557FD75
:101FF0009058440F551F59F05F3F71F04795880F77
:1020000097FB991F61F09F3F79F08795089512160D
:1020100013061406551FF2CF4695F1DF08C01616B9
:1020200017061806991FF1CF86957105610508946A
:102030000895E894BB2766277727CB0197F9089581
:10204000052E97FB1EF400940E94371057FD07D011
:102050000E944A1007FC03D04EF40C9437105095A0
:102060004095309521953F4F4F4F5F4F0895909584
:102070008095709561957F4F8F4F9F4F08950E9477
:102080006C10A59F900DB49F900DA49F800D911D85
:1020900011240895A1E21A2EAA1BBB1BFD010DC03D
:1020A000AA1FBB1FEE1FFF1FA217B307E407F50708
:1020B00020F0A21BB30BE40BF50B661F771F881FE4
:1020C000991F1A9469F760957095809590959B017A
:1020D000AC01BD01CF010895A29FB001B39FC00123
:1020E000A39F700D811D1124911DB29F700D811D44
:1020F0001124911D08955058BB27AA270E949310C0
:102100000C94E60F0E94D80F38F00E94DF0F20F0E9
:1021100039F49F3F19F426F40C94D50F0EF4E09592
:10212000E7FB0C94CF0FE92F0E94F70F58F3BA1773
:10213000620773078407950720F079F4A6F50C94DD
:1021400019100EF4E0950B2EBA2FA02D0B01B9013A
:1021500090010C01CA01A0011124FF27591B99F01D
:10216000593F50F4503E68F11A16F040A22F232F29
:10217000342F4427585FF3CF469537952795A79579
:10218000F0405395C9F77EF41F16BA0B620B730B20
:10219000840BBAF09150A1F0FF0FBB1F661F771F91
:1021A000881FC2F70EC0BA0F621F731F841F48F446
:1021B000879577956795B795F7959E3F08F0B0CFCF
:1021C0009395880F08F09927EE0F979587950895B6
:1021D0000E943E0F08F48FEF0895991B79E004C028
:1021E000991F961708F0961B881F7A95C9F7809556
:1021F0000895EE0FFF1F881F8BBF0790F691E02D0B
:1022000019940F931F93CF93DF938230910510F4AD
:1022100082E090E0E0912304F091240430E020E09B
:10222000B0E0A0E0309799F42115310509F44AC0D7
:10223000281B390B24303105D8F58A819B81611523
:10224000710589F1FB0193838283FE0111C04081F6
:1022500051810281138148175907E0F04817590747
:1022600099F4109761F012960C93129713961C93A1
:102270003296CF01DF91CF911F910F910895009376
:10228000230410932404F4CF2115310551F0421793
:10229000530738F0A901DB019A01BD01DF01F80104
:1022A000C1CFEF01F9CF9093240480932304CDCFC5
:1022B000FE01E20FF31F819391932250310939837C
:1022C0002883D7CF2091210430912204232B41F47D
:1022D00020910A0230910B023093220420932104B2
:1022E00020910802309109022115310541F42DB7E2
:1022F0003EB740910C0250910D02241B350BE0912A
:102300002104F0912204E217F307A0F42E1B3F0BE7
:102310002817390778F0AC014E5F5F4F2417350757
:1023200048F04E0F5F1F5093220440932104819385
:1023300091939FCFF0E0E0E09CCFCF93DF930097A5
:10234000E9F0FC01329713821282A0912304B0912C
:102350002404ED0130E020E01097A1F420813181C8
:10236000820F931F209121043091220428173907EE
:1023700009F061C0F0932204E0932104DF91CF9132
:102380000895EA01CE17DF07E8F54A815B819E01D7
:1023900041155105B1F7E901FB83EA834991599150
:1023A000C40FD51FEC17FD0761F48081918102965F
:1023B000840F951FE90199838883828193819B8390
:1023C0008A83F0E0E0E012968D919C91139700973C
:1023D000B9F52D913C911197CD010296820F931F73
:1023E00020912104309122042817390739F63097BB
:1023F00051F51092240410922304B0932204A09368
:102400002104BCCFD383C28340815181840F951FA7
:10241000C817D90761F44E5F5F4F88819981480FD3
:10242000591F518340838A819B8193838283211525
:10243000310509F0B0CFF0932404E09323049ECF3C
:10244000FD01DC01C0CF13821282D7CF4F925F9281
:102450006F927F928F929F92AF92BF92CF92DF92B4
:10246000EF92FF920F931F93CF93DF938C0100970E
:1024700099F4CB01DF91CF911F910F91FF90EF90D5
:10248000DF90CF90BF90AF909F908F907F906F9094
:102490005F904F900C940111FC01E60FF71F9C0117
:1024A00022503109E217F30708F4AEC0D901CD91EB
:1024B000DC911197C617D70720F1C530D10578F008
:1024C000CE0104978617970750F0C61BD70B2297AB
:1024D000C193D1936D937C93CF010E949D11C8014C
:1024E000DF91CF911F910F91FF90EF90DF90CF90F0
:1024F000BF90AF909F908F907F906F905F904F9024
:1025000008955B01AC1ABD0A4C018C0E9D1EA09172
:102510002304B0912404512C412CF12CE12C109770
:1025200031F580912104909122048815990509F0D4
:102530005CC04616570608F058C08091080290917A
:102540000902009741F48DB79EB740910C0250915B
:102550000D02841B950BE817F90708F055C0F0939E
:102560002204E0932104F90171836083B8CF8D9137
:102570009C91119712966C90129713967C901397DA
:10258000A815B90559F56C0142E0C40ED11CCA1456
:10259000DB0420F1AC014A195B09DA0112961597A8
:1025A00080F06282738251834083D9016D937C9362
:1025B000E114F10471F0D7011396FC93EE93129796
:1025C0008ECF22968C0F9D1FF90191838083F3019A
:1025D000EFCFF0932404E093230481CF48165906EB
:1025E00008F42C017D01D3019ACFCB010E94011187
:1025F0007C01009749F0AE01B8010E940713C801A1
:102600000E949D1187016BCF10E000E068CFFB01B5
:10261000DC0102C001900D9241505040D8F708955E
:10262000FB01DC0101900D920020E1F70895F89480
:02263000FFCFDA
:102632001F21272531323334000025048000000099
:10264200000014037E02AB026103DC02BA02CE0276
:1026520000000000B304730442040D0A0025005672
:10266200616C6F723A20004C445220656C65676958
:10267200646F3A2031004C445220656C656769648E
:102682006F3A2032004C445220656C656769646F72
:102692003A2033004C445220656C656769646F3A96
:0426A20020340000E0
:00000001FF
